:020000040000FA
:1000000088020010D5000000D9000000DB000000CD
:1000100000000000000000000000000000000000E0
:10002000000000000000000000000000DD000000F3
:100030000000000000000000DF000000E100000000
:10004000E3000000E3000000E3000000E300000024
:10005000E3000000E3000000E3000000E300000014
:10006000E3000000E3000000E3000000E300000004
:10007000E300000000000000E3000000E3000000D7
:100080006301000075010000E3000000E3000000D0
:10009000E3000000E90B0000000000000000000089
:1000A000E3000000E3000000E300000000000000A7
:1000B00067060000390600000B060000D7050000A7
:1000C0000348854600F0ACFF0048004701040000EB
:1000D0008802001003480047FEE7FEE7FEE7FEE760
:1000E000FEE7FEE7C100000070B504460D46002C97
:1000F0001AD10220764948600020C8607D21C900DD
:100100007448006800F076FF684371498861FF20F9
:100110000860042048610120486000BF6C484068C6
:10012000C007C00FFAD11BE0012C19D102206A4987
:1001300048600020C8607D21C9006648006800F062
:1001400059FF684364498861FF20086004204861C2
:100150000120486000BF60484068C007C00FFAD166
:1001600070BD01205A4908605C480068401C5B492A
:100170000860704701205849086059480068401CD1
:10018000574908607047002803D10121504A516047
:1001900002E00121504A51607047002803D100213C
:1001A0004B4A516002E000214B4A516070470146C2
:1001B000002906D1464A506802221043444A506042
:1001C00005E0454A506802221043434A5060704798
:1001D00070B504460D46002C38D142480068802195
:1001E0000843404908604048C069C008C0003E4913
:1001F000C8610846C069022108433B49C8613A48C2
:100200004030006AC008C0003749403108620846E3
:10021000006A022108433449403108620846406AB6
:10022000C008C00048620846406A022108432E49BF
:100230004031486200202949086025488561032033
:1002400023494861102000F03BF838E0012C36D1FA
:100250002448006821020843224908602248406976
:10026000C008C00020494861084640690121084390
:100270001D4948610846806BC008C0008863084675
:10028000806B012108431849886317484030C06AD1
:10029000C008C00014494031C8620846C06A022143
:1002A000084311494031C86200200D4908600A48DE
:1002B0008561032008494861112000F001F870BDF4
:1002C000C206D20E01219140084A11607047000019
:1002D00000C000403C000010000001402000001061
:1002E00024000010808004400040044000E100E051
:1002F000704700000000000000000000FFFFFFFF4B
:1003000010B500210022002300BF08E0002201E018
:100310005B1C521CFF24F534A242F9D3491C8142D4
:10032000F4D310BD00BF6B4800680028FBD0062046
:1003300069494860002067490860072066494860AD
:1003400066480078704770B505460E46002464A0E4
:1003500000F078FE00BF5F4800680028FBD0062050
:100360005D4948605B4801685C4800F05EFD5948A3
:1003700000683070002404E05848005D2855601C77
:10038000C4B2544800688442F6D300205149086042
:100390000720514948605148007870BD10B50024CD
:1003A00000BF14E0A107890F0022022000F014FA18
:1003B0007D20C000FFF7A4FFA107890F01220220C2
:1003C00000F00AFA7D20C000FFF79AFF641C042C9D
:1003D000E8D310BD10B500221146022000F06EF9DE
:1003E00000220121022000F069F9002202210846C2
:1003F00000F064F900220321022000F05FF910BD33
:100400008EB00024002500F0C6FDE120400200F07F
:10041000A4FC01220021022000F050F90122114623
:10042000022000F04BF901220221084600F046F9B3
:1004300001220321022000F041F92BA000F002FE6E
:100440000C2130A000F0F1FC42E0FFF76BFF01A9A6
:10045000485501A8405D3B2802D0681CC5B237E072
:10046000002405E001A8015D29A000F0EBFD641C5B
:10047000AC42F7D927A000F0E5FD022D00DA27E015
:100480006846007963280AD0732811D168468079BC
:10049000014630390022022000F09EF909E068464A
:1004A0008079014630390122022000F095F900E000
:1004B00000BF00BF002405E0002001A9085507493E
:1004C0000855641C034800688442F5D3002500BF2A
:1004D000BBE700002C00001000800040440000102A
:1004E000496E7075743A00005374617274206265CD
:1004F00067696E2073646B206275696C64200D0AF5
:10050000000000006861686120746573740D0A0062
:10051000256300000A47657420636D640A000000CB
:10052000002806D001280CD0022812D0032820D1A0
:1005300017E0FF4AD26901238B401A43FC4BDA6172
:1005400018E0FC4AD26901238B401A43F94BDA6167
:1005500010E0F94AD26901238B401A43F64BDA6165
:1005600008E0F64AD26901238B401A43F34BDA6163
:1005700000E000BF00BF704710B502460020002A0F
:1005800006D0012A0CD0022A12D0032A20D117E06B
:10059000E74B9B6901248C40234200D0012018E0E6
:1005A000E44B9B6901248C40234200D0012010E0E1
:1005B000E14B9B6901248C40234200D0012008E0DC
:1005C000DE4B9B6901248C40234200D0012000E0D7
:1005D00000BF00BF10BD10B5D9480068401CD84905
:1005E000086001210020FFF7C7FF0446002C08D057
:1005F000D4480068401CD349086001210020FFF75F
:100600008FFFD1A000F01EFD10BD10B5D5480068C9
:10061000401CD449086001210846FFF7ADFF04469D
:10062000002C08D0D0480068401CCF490860012148
:100630000846FFF775FF10BD10B5CC480068401C98
:10064000CA49086001210220FFF796FF0446002CEA
:1006500008D0C7480068401CC54908600121022035
:10066000FFF75EFF10BD10B5C2480068401CC149CD
:10067000086001210320FFF77FFF0446002C08D00B
:10068000BD480068401CBC49086001210320FFF7F9
:1006900047FF10BD10B5B948006840210843B7496D
:1006A00008601F2000F08EFA1E2000F08BFA1D203B
:1006B00000F088FA1C2000F085FA10BD10B5002863
:1006C00006D0012824D0022842D0032870D15FE050
:1006D000974B1B6801248C40234209D1012A07D182
:1006E000934B1B6801248C402343914C23600EE004
:1006F0008F4B1B6801248C40234208D0002A06D16E
:100700008B4B1B6801248C40A343894C236061E020
:10071000884B1B6801248C40234209D1012A07D150
:10072000844B1B6801248C402343824C23600EE0E1
:10073000804B1B6801248C40234208D0002A06D13C
:100740007C4B1C6801238B409C437A4B1C6041E02E
:10075000794B1B6801248C40234209D1012A07D11F
:10076000754B1B6801248C402343734C23600EE0BF
:10077000714B1B6801248C40234208D0002A06D10B
:100780006D4B1B6801248C40A3436B4C236021E01C
:100790006A4B1B6801248C4023420AD1012A08D1EC
:1007A000664B1B6801248C402343644C23600FE09C
:1007B0000FE0624B1B6801248C40234208D0002AC2
:1007C00006D15E4B1B6801248C40A3435B4C236025
:1007D00000E000BF00BF10BD10B5002806D0012802
:1007E00024D0022842D0032870D15FE0644BDB6B39
:1007F00001248C40234209D1012A07D1604BDB6BD5
:1008000001248C4023435E4CE3630EE05C4BDB6BC6
:1008100001248C40234208D0002A06D1584BDB6BC0
:1008200001248C40A343564CE36361E0554BDB6BE2
:1008300001248C40234209D1012A07D1514BDB6BA3
:1008400001248C4023434F4CE3630EE04D4BDB6BA4
:1008500001248C40234208D0002A06D1494BDC6B8E
:1008600001238B409C43474BDC6341E0464BDB6BF1
:1008700001248C40234209D1012A07D1424BDB6B72
:1008800001248C402343404CE3630EE03E4BDB6B82
:1008900001248C40234208D0002A06D13A4BDB6B5E
:1008A00001248C40A343384CE36321E0374BDB6BDE
:1008B00001248C4023420AD1012A08D1334BDB6B3F
:1008C00001248C402343314CE3630FE00FE02F4BB6
:1008D000DB6B01248C40234208D0002A06D12B4B2D
:1008E000DB6B01248C40A343284CE36300E000BF92
:1008F00000BF10BD70B5049C002806D0012868D048
:10090000022879D0032878D1CDE0002A48D1084DBB
:100910006D6801268E40B543054E7560002B37D1BA
:100920003546AD6801268E40B543014EB5603EE0C8
:100930000080005000800150008002500080035071
:1009400000000010100000100A0D2050494F494EC1
:1009500054305F49525148616E646C657221200ABF
:100960000D0000000400001014000010080000102A
:10097000180000100C0000101C00001080800440C3
:10098000C03F0050C03F0150C03F0250C03F035025
:10099000904DAD6801268E4035438E4EB56006E021
:1009A0008C4D6D6801268E4035438A4E7560002C53
:1009B00007D1884DED6801268E40B543854EF56020
:1009C00006E0844DED6801268E403543814EF5608A
:1009D0009EE0002A1AD1804D6D6801268E40B543F5
:1009E0007D4E7560002B09D13546AD6801268E40DD
:1009F000B543794EB56010E021E088E0764DAD68F2
:100A000001268E403543744EB56006E0724D6D6828
:100A100001268E403543704E7560002C07D16E4D17
:100A2000ED6801268E40B5436B4EF56006E06A4DD9
:100A3000ED6801268E403543674EF56068E0002A78
:100A400018D1664D6D6801268E40B543634E7560C2
:100A5000002B07D13546AD6801268E40B5435F4E69
:100A6000B5600EE05D4DAD6801268E4035435B4EAE
:100A7000B56006E0594D6D6801268E403543574EEE
:100A80007560002C07D1554DED6801268E40B543A9
:100A9000524EF56006E0514DED6801268E4035431B
:100AA0004E4EF56034E0002A18D14D4D6D68012698
:100AB0008E40B5434A4E7560002B07D13546AD6870
:100AC00001268E40B543464EB5600EE0444DAD68FC
:100AD00001268E403543424EB56006E0404D6D68BC
:100AE00001268E4035433E4E7560002C07D13C4DAB
:100AF000ED6801268E40B543394EF56006E0384D6D
:100B0000ED6801268E403543354EF56000E000BFAC
:100B100000BF70BD002806D001280CD0022812D0DA
:100B2000032820D117E02B4A126901238B401A4376
:100B3000284B1A6118E0284A126901238B401A4396
:100B4000254B1A6110E0254A126901238B401A4394
:100B5000224B1A6108E0224A126901238B401A4392
:100B60001F4B1A6100E000BF00BF7047002806D08D
:100B700001280CD0022812D0032820D117E0154AF2
:100B8000126901238B409A43124B1A6118E0124AF2
:100B9000126901238B409A430F4B1A6110E00F4AF0
:100BA000126901238B409A430C4B1A6108E00C4AEE
:100BB000136901228A409343094A136100E000BF90
:100BC00000BF7047C206D20E01219140054A116054
:100BD00070470000008000500080015000800250EB
:100BE0000080035000E100E070B500BF964A9268B3
:100BF000D0B240104007400F032820D1924A5269DA
:100C0000D1B29E22114205D0904A11608E4A1268DC
:100C1000D3B270BDCA07D20F3ED08B4C2468E5B268
:100C20008B4C2268541C8A4E34608A4CA554324640
:100C30001268402A30D10022344622602CE002287B
:100C400011D1814C2468E5B2814C2268541C804E3D
:100C50003460804CA55432461268402A1CD10022D0
:100C60003446226018E0062807D1784A1268FF242B
:100C700001342243754C22600EE001280CD1724AE7
:100C80005269D1B22022114203D00122724C22704B
:100C900002E00022704C227000BFBAE76F48806803
:100CA000C008C0006D49886008468068012108437B
:100CB0006A498860694840300069C008C0006749D7
:100CC0004031086108460069012108436349403109
:100CD000086162488030006AC008C0005F49803106
:100CE00008620846006A012108435C4980310862B5
:100CF000002048635948806AC008C000574988628C
:100D00000846806A012108435449886200205349FB
:100D10008031886351484030C069C008C0004F49E5
:100D20004031C8610846C069012108434B49403140
:100D3000C861002049498031C8630846C068C008BE
:100D4000C000C8600846C06801210843434980319B
:100D5000C860C0203C4908617047F8B504460120CE
:100D60003D49087000203A49086000BF1520012164
:100D700081403B48016000BF38488030406AC0086D
:100D8000C0003649803148620846406A0121084364
:100D90003249803148620846806AC008C0008862D3
:100DA0000846806A012108432C49803188622D4819
:100DB00000680121090308432A490860012088616D
:100DC00083202149C860274887693946264800683A
:100DD00000F010F906092146304600F00BF90546EF
:100DE000280A19494860E8B208600320C860072053
:100DF00088600846476900BF134840690020002802
:100E0000FAD101E0104807680F484069C007C00FD9
:100E1000F8D100BF152001218140114880380160C0
:100E200000BF052008494860F8BD0AE000BF064A37
:100E3000526920231A42FAD00278034B1A60401CF0
:100E4000491E0029F2D17047008000403000001098
:100E50002C00001044000010280000100040044046
:100E600080E100E0808004403C00001000BF044AA4
:100E7000526920231A42FAD0014A106070470000DC
:100E8000008000405549564A11600121554A1160C1
:100E90005160002151600121516000BF51494968F2
:100EA000C907C90FFAD04F4940398868400A400243
:100EB00020210143032211434A4A403A91604A49A2
:100EC000896B80229143484A916300BF454940396C
:100ED000C968C907C90FF9D00321424A116301212A
:100EE0005163002151630121516300BF3D49496BAA
:100EF000C907C90FFAD001213A4A916338490968F4
:100F000089003A4A116011460968394A11607047F0
:100F10003549896B052212029143334A91630121BD
:100F2000304A9160D1600021D1600121D16000BFC1
:100F30002C49C968C907C90FFAD02A49403908693C
:100F4000400A40022021014303221143254A403A2E
:100F5000116100BF234940394969C907C90FF9D058
:100F60000121204A8032116051600021516001212D
:100F7000516000BF1B4980314968C907C90FF9D0CA
:100F80000121184A803291601749896B92151143EB
:100F9000154A9163704700B5002012494039086234
:100FA0001148806B202188430F498863002300E0AB
:100FB0005B1CFF2BFCD9FFF765FF0B48806B0521FD
:100FC00009028843084988630648403000680121C7
:100FD0000904084303494031086000BD001BB70005
:100FE00034000010408004400082044038000010AB
:100FF0003C00001030B50B460146002020220124A1
:1010000009E00D46D5409D4205D31D469540491B3C
:101010002546954040191546521E002DF1DC30BD85
:10102000064C0125064E05E02046E36807C82B4321
:1010300098471034B442F7D3FFF746F84811000040
:10104000681100000FB410B503A9044B044A0298BC
:1010500000F016F810BC08BC04B018476D0E000074
:101060004000001002E008C8121F08C1002AFAD18F
:101070007047002001E001C1121F002AFBD1704718
:10108000FFB581B00546002758E0252801D0039917
:1010900022E06D1C0022297810462E2913D16D1CE8
:1010A000297804222A2909D102996D1C01C90291CB
:1010B00009E00A235843303808186D1C29780B467C
:1010C000303B092BF5D92B78002B3AD0632B07D076
:1010D000732B0FD003991846049A90477F1C2CE07D
:1010E00002996C4608C923700291002161706E4616
:1010F000012104E0029940C902910021C94352072D
:101100000AD5002400E0641C84420DDA8C42FADB2C
:10111000325D002AF7D107E0002400E0641C8C4215
:10112000FCDB305D0028F9D13F1904E03078049AE7
:10113000761C03999047641EF8D26D1C287800280D
:10114000A3D1384605B0F0BD6811000000000010C2
:101150004400000064100000AC11000044000010C6
:1011600044020000721000000000000000000000B7
:10117000000000000000000000000000000000006F
:10118000000000000000000000000000000000005F
:1011900001000000000000000000000000093D0008
:0C11A00000093D0000093D0000000000B7
:04000005000000C136
:00000001FF
